{
  "_format": "hh-sol-artifact-1",
  "contractName": "EventFactory",
  "sourceName": "contracts/EventFactory.sol",
  "abi": [
    {
      "anonymous": false,
      "inputs": [
        {
          "indexed": false,
          "internalType": "address",
          "name": "eventAddress",
          "type": "address"
        }
      ],
      "name": "EventCreated",
      "type": "event"
    },
    {
      "inputs": [
        {
          "internalType": "string",
          "name": "name",
          "type": "string"
        },
        {
          "internalType": "string",
          "name": "symbol",
          "type": "string"
        },
        {
          "internalType": "uint256",
          "name": "maxTickets",
          "type": "uint256"
        },
        {
          "internalType": "uint256",
          "name": "basePrice",
          "type": "uint256"
        },
        {
          "internalType": "bool",
          "name": "dynamicPricing",
          "type": "bool"
        },
        {
          "internalType": "uint256",
          "name": "priceIncrement",
          "type": "uint256"
        }
      ],
      "name": "createEvent",
      "outputs": [],
      "stateMutability": "nonpayable",
      "type": "function"
    },
    {
      "inputs": [
        {
          "internalType": "uint256",
          "name": "",
          "type": "uint256"
        }
      ],
      "name": "events",
      "outputs": [
        {
          "internalType": "address",
          "name": "",
          "type": "address"
        }
      ],
      "stateMutability": "view",
      "type": "function"
    },
    {
      "inputs": [],
      "name": "getEvents",
      "outputs": [
        {
          "internalType": "address[]",
          "name": "",
          "type": "address[]"
        }
      ],
      "stateMutability": "view",
      "type": "function"
    }
  ],
  "bytecode": "0x6080604052348015600f57600080fd5b506140788061001f6000396000f3fe608060405234801561001057600080fd5b50600436106100415760003560e01c80630b79143014610046578063404aa8f914610076578063f683c14314610094575b600080fd5b610060600480360381019061005b91906102bb565b6100b0565b60405161006d9190610329565b60405180910390f35b61007e6100ef565b60405161008b9190610402565b60405180910390f35b6100ae60048036038101906100a991906105a2565b61017d565b005b600081815481106100c057600080fd5b906000526020600020016000915054906101000a900473ffffffffffffffffffffffffffffffffffffffff1681565b6060600080548060200260200160405190810160405280929190818152602001828054801561017357602002820191906000526020600020905b8160009054906101000a900473ffffffffffffffffffffffffffffffffffffffff1673ffffffffffffffffffffffffffffffffffffffff1681526020019060010190808311610129575b5050505050905090565b60008686868686863360405161019290610264565b6101a29796959493929190610704565b604051809103906000f0801580156101be573d6000803e3d6000fd5b5090506000819080600181540180825580915050600190039060005260206000200160009091909190916101000a81548173ffffffffffffffffffffffffffffffffffffffff021916908373ffffffffffffffffffffffffffffffffffffffff1602179055507ffc8a4c0621b9788c4dbe57053a51ce2d22625a067d039f38004df2a07ca755a4816040516102539190610329565b60405180910390a150505050505050565b6138c18061078283390190565b6000604051905090565b600080fd5b600080fd5b6000819050919050565b61029881610285565b81146102a357600080fd5b50565b6000813590506102b58161028f565b92915050565b6000602082840312156102d1576102d061027b565b5b60006102df848285016102a6565b91505092915050565b600073ffffffffffffffffffffffffffffffffffffffff82169050919050565b6000610313826102e8565b9050919050565b61032381610308565b82525050565b600060208201905061033e600083018461031a565b92915050565b600081519050919050565b600082825260208201905092915050565b6000819050602082019050919050565b61037981610308565b82525050565b600061038b8383610370565b60208301905092915050565b6000602082019050919050565b60006103af82610344565b6103b9818561034f565b93506103c483610360565b8060005b838110156103f55781516103dc888261037f565b97506103e783610397565b9250506001810190506103c8565b5085935050505092915050565b6000602082019050818103600083015261041c81846103a4565b905092915050565b600080fd5b600080fd5b6000601f19601f8301169050919050565b7f4e487b7100000000000000000000000000000000000000000000000000000000600052604160045260246000fd5b6104778261042e565b810181811067ffffffffffffffff821117156104965761049561043f565b5b80604052505050565b60006104a9610271565b90506104b5828261046e565b919050565b600067ffffffffffffffff8211156104d5576104d461043f565b5b6104de8261042e565b9050602081019050919050565b82818337600083830152505050565b600061050d610508846104ba565b61049f565b90508281526020810184848401111561052957610528610429565b5b6105348482856104eb565b509392505050565b600082601f83011261055157610550610424565b5b81356105618482602086016104fa565b91505092915050565b60008115159050919050565b61057f8161056a565b811461058a57600080fd5b50565b60008135905061059c81610576565b92915050565b60008060008060008060c087890312156105bf576105be61027b565b5b600087013567ffffffffffffffff8111156105dd576105dc610280565b5b6105e989828a0161053c565b965050602087013567ffffffffffffffff81111561060a57610609610280565b5b61061689828a0161053c565b955050604061062789828a016102a6565b945050606061063889828a016102a6565b935050608061064989828a0161058d565b92505060a061065a89828a016102a6565b9150509295509295509295565b600081519050919050565b600082825260208201905092915050565b60005b838110156106a1578082015181840152602081019050610686565b60008484015250505050565b60006106b882610667565b6106c28185610672565b93506106d2818560208601610683565b6106db8161042e565b840191505092915050565b6106ef81610285565b82525050565b6106fe8161056a565b82525050565b600060e082019050818103600083015261071e818a6106ad565b9050818103602083015261073281896106ad565b905061074160408301886106e6565b61074e60608301876106e6565b61075b60808301866106f5565b61076860a08301856106e6565b61077560c083018461031a565b9897505050505050505056fe608060405234801561001057600080fd5b506040516138c13803806138c183398181016040528101906100329190610424565b80878781600090816100449190610715565b5080600190816100549190610715565b505050600073ffffffffffffffffffffffffffffffffffffffff168173ffffffffffffffffffffffffffffffffffffffff16036100c95760006040517f1e4fbdf70000000000000000000000000000000000000000000000000000000081526004016100c091906107f6565b60405180910390fd5b6100d88161011d60201b60201c565b5084600b8190555083600d8190555082600f60006101000a81548160ff02191690831515021790555081601081905550600d54600e8190555050505050505050610811565b6000600a60009054906101000a900473ffffffffffffffffffffffffffffffffffffffff16905081600a60006101000a81548173ffffffffffffffffffffffffffffffffffffffff021916908373ffffffffffffffffffffffffffffffffffffffff1602179055508173ffffffffffffffffffffffffffffffffffffffff168173ffffffffffffffffffffffffffffffffffffffff167f8be0079c531659141344cd1fd0a4f28419497f9722a3daafe3b4186f6b6457e060405160405180910390a35050565b6000604051905090565b600080fd5b600080fd5b600080fd5b600080fd5b6000601f19601f8301169050919050565b7f4e487b7100000000000000000000000000000000000000000000000000000000600052604160045260246000fd5b61024a82610201565b810181811067ffffffffffffffff8211171561026957610268610212565b5b80604052505050565b600061027c6101e3565b90506102888282610241565b919050565b600067ffffffffffffffff8211156102a8576102a7610212565b5b6102b182610201565b9050602081019050919050565b60005b838110156102dc5780820151818401526020810190506102c1565b60008484015250505050565b60006102fb6102f68461028d565b610272565b905082815260208101848484011115610317576103166101fc565b5b6103228482856102be565b509392505050565b600082601f83011261033f5761033e6101f7565b5b815161034f8482602086016102e8565b91505092915050565b6000819050919050565b61036b81610358565b811461037657600080fd5b50565b60008151905061038881610362565b92915050565b60008115159050919050565b6103a38161038e565b81146103ae57600080fd5b50565b6000815190506103c08161039a565b92915050565b600073ffffffffffffffffffffffffffffffffffffffff82169050919050565b60006103f1826103c6565b9050919050565b610401816103e6565b811461040c57600080fd5b50565b60008151905061041e816103f8565b92915050565b600080600080600080600060e0888a031215610443576104426101ed565b5b600088015167ffffffffffffffff811115610461576104606101f2565b5b61046d8a828b0161032a565b975050602088015167ffffffffffffffff81111561048e5761048d6101f2565b5b61049a8a828b0161032a565b96505060406104ab8a828b01610379565b95505060606104bc8a828b01610379565b94505060806104cd8a828b016103b1565b93505060a06104de8a828b01610379565b92505060c06104ef8a828b0161040f565b91505092959891949750929550565b600081519050919050565b7f4e487b7100000000000000000000000000000000000000000000000000000000600052602260045260246000fd5b6000600282049050600182168061055057607f821691505b60208210810361056357610562610509565b5b50919050565b60008190508160005260206000209050919050565b60006020601f8301049050919050565b600082821b905092915050565b6000600883026105cb7fffffffffffffffffffffffffffffffffffffffffffffffffffffffffffffffff8261058e565b6105d5868361058e565b95508019841693508086168417925050509392505050565b6000819050919050565b600061061261060d61060884610358565b6105ed565b610358565b9050919050565b6000819050919050565b61062c836105f7565b61064061063882610619565b84845461059b565b825550505050565b600090565b610655610648565b610660818484610623565b505050565b5b818110156106845761067960008261064d565b600181019050610666565b5050565b601f8211156106c95761069a81610569565b6106a38461057e565b810160208510156106b2578190505b6106c66106be8561057e565b830182610665565b50505b505050565b600082821c905092915050565b60006106ec600019846008026106ce565b1980831691505092915050565b600061070583836106db565b9150826002028217905092915050565b61071e826104fe565b67ffffffffffffffff81111561073757610736610212565b5b6107418254610538565b61074c828285610688565b600060209050601f83116001811461077f576000841561076d578287015190505b61077785826106f9565b8655506107df565b601f19841661078d86610569565b60005b828110156107b557848901518255600182019150602085019450602081019050610790565b868310156107d257848901516107ce601f8916826106db565b8355505b6001600288020188555050505b505050505050565b6107f0816103e6565b82525050565b600060208201905061080b60008301846107e7565b92915050565b6130a1806108206000396000f3fe6080604052600436106101cd5760003560e01c806385fd52f0116100f7578063a22cb46511610095578063e985e9c511610064578063e985e9c5146106a0578063eb91d37e146106dd578063edca914c14610708578063f2fde38b14610712576101cd565b8063a22cb465146105e6578063b88d4fde1461060f578063c7876ea414610638578063c87b56dd14610663576101cd565b806395d89b41116100d157806395d89b41146105285780639ab0cd88146105535780639b894703146105905780639d1b464a146105bb576101cd565b806385fd52f0146104955780638da5cb5b146104d25780638f15024f146104fd576101cd565b8063280d62ac1161016f5780636352211e1161013e5780636352211e146103d957806370a0823114610416578063715018a6146104535780637526a6851461046a576101cd565b8063280d62ac1461030b5780632f745c591461033657806342842e0e146103735780634f6ccce71461039c576101cd565b8063095ea7b3116101ab578063095ea7b31461027757806318160ddd146102a05780632338116b146102cb57806323b872dd146102e2576101cd565b806301ffc9a7146101d257806306fdde031461020f578063081812fc1461023a575b600080fd5b3480156101de57600080fd5b506101f960048036038101906101f49190612548565b61073b565b6040516102069190612590565b60405180910390f35b34801561021b57600080fd5b506102246107b5565b604051610231919061263b565b60405180910390f35b34801561024657600080fd5b50610261600480360381019061025c9190612693565b610847565b60405161026e9190612701565b60405180910390f35b34801561028357600080fd5b5061029e60048036038101906102999190612748565b610863565b005b3480156102ac57600080fd5b506102b5610879565b6040516102c29190612797565b60405180910390f35b3480156102d757600080fd5b506102e0610886565b005b3480156102ee57600080fd5b50610309600480360381019061030491906127b2565b61092b565b005b34801561031757600080fd5b50610320610a2d565b60405161032d9190612797565b60405180910390f35b34801561034257600080fd5b5061035d60048036038101906103589190612748565b610a33565b60405161036a9190612797565b60405180910390f35b34801561037f57600080fd5b5061039a600480360381019061039591906127b2565b610adc565b005b3480156103a857600080fd5b506103c360048036038101906103be9190612693565b610afc565b6040516103d09190612797565b60405180910390f35b3480156103e557600080fd5b5061040060048036038101906103fb9190612693565b610b72565b60405161040d9190612701565b60405180910390f35b34801561042257600080fd5b5061043d60048036038101906104389190612805565b610b84565b60405161044a9190612797565b60405180910390f35b34801561045f57600080fd5b50610468610c3e565b005b34801561047657600080fd5b5061047f610c52565b60405161048c9190612590565b60405180910390f35b3480156104a157600080fd5b506104bc60048036038101906104b79190612805565b610c65565b6040516104c991906128f0565b60405180910390f35b3480156104de57600080fd5b506104e7610d0d565b6040516104f49190612701565b60405180910390f35b34801561050957600080fd5b50610512610d37565b60405161051f9190612797565b60405180910390f35b34801561053457600080fd5b5061053d610d3d565b60405161054a919061263b565b60405180910390f35b34801561055f57600080fd5b5061057a60048036038101906105759190612748565b610dcf565b6040516105879190612590565b60405180910390f35b34801561059c57600080fd5b506105a5610e10565b6040516105b29190612797565b60405180910390f35b3480156105c757600080fd5b506105d0610e16565b6040516105dd9190612797565b60405180910390f35b3480156105f257600080fd5b5061060d6004803603810190610608919061293e565b610e1c565b005b34801561061b57600080fd5b5061063660048036038101906106319190612ab3565b610e32565b005b34801561064457600080fd5b5061064d610e57565b60405161065a9190612797565b60405180910390f35b34801561066f57600080fd5b5061068a60048036038101906106859190612693565b610e5d565b604051610697919061263b565b60405180910390f35b3480156106ac57600080fd5b506106c760048036038101906106c29190612b36565b610ec6565b6040516106d49190612590565b60405180910390f35b3480156106e957600080fd5b506106f2610f5a565b6040516106ff9190612797565b60405180910390f35b610710610f64565b005b34801561071e57600080fd5b5061073960048036038101906107349190612805565b6110fd565b005b60007f780e9d63000000000000000000000000000000000000000000000000000000007bffffffffffffffffffffffffffffffffffffffffffffffffffffffff1916827bffffffffffffffffffffffffffffffffffffffffffffffffffffffff191614806107ae57506107ad82611183565b5b9050919050565b6060600080546107c490612ba5565b80601f01602080910402602001604051908101604052809291908181526020018280546107f090612ba5565b801561083d5780601f106108125761010080835404028352916020019161083d565b820191906000526020600020905b81548152906001019060200180831161082057829003601f168201915b5050505050905090565b600061085282611265565b5061085c826112ed565b9050919050565b610875828261087061132a565b611332565b5050565b6000600880549050905090565b601054600e5410156108cd576040517f08c379a00000000000000000000000000000000000000000000000000000000081526004016108c490612c22565b60405180910390fd5b601054600e60008282546108e19190612c71565b92505081905550600f60009054906101000a900460ff1680156109085750601054600d5410155b1561092957601054600d60008282546109219190612c71565b925050819055505b565b600073ffffffffffffffffffffffffffffffffffffffff168273ffffffffffffffffffffffffffffffffffffffff160361099d5760006040517f64a0ae920000000000000000000000000000000000000000000000000000000081526004016109949190612701565b60405180910390fd5b60006109b183836109ac61132a565b611344565b90508373ffffffffffffffffffffffffffffffffffffffff168173ffffffffffffffffffffffffffffffffffffffff1614610a27578382826040517f64283d7b000000000000000000000000000000000000000000000000000000008152600401610a1e93929190612ca5565b60405180910390fd5b50505050565b60105481565b6000610a3e83610b84565b8210610a835782826040517fa57d13dc000000000000000000000000000000000000000000000000000000008152600401610a7a929190612cdc565b60405180910390fd5b600660008473ffffffffffffffffffffffffffffffffffffffff1673ffffffffffffffffffffffffffffffffffffffff168152602001908152602001600020600083815260200190815260200160002054905092915050565b610af783838360405180602001604052806000815250610e32565b505050565b6000610b06610879565b8210610b4c576000826040517fa57d13dc000000000000000000000000000000000000000000000000000000008152600401610b43929190612cdc565b60405180910390fd5b60088281548110610b6057610b5f612d05565b5b90600052602060002001549050919050565b6000610b7d82611265565b9050919050565b60008073ffffffffffffffffffffffffffffffffffffffff168273ffffffffffffffffffffffffffffffffffffffff1603610bf75760006040517f89c62b64000000000000000000000000000000000000000000000000000000008152600401610bee9190612701565b60405180910390fd5b600360008373ffffffffffffffffffffffffffffffffffffffff1673ffffffffffffffffffffffffffffffffffffffff168152602001908152602001600020549050919050565b610c46611461565b610c5060006114e8565b565b600f60009054906101000a900460ff1681565b60606000610c7283610b84565b905060008167ffffffffffffffff811115610c9057610c8f612988565b5b604051908082528060200260200182016040528015610cbe5781602001602082028036833780820191505090505b50905060005b82811015610d0257610cd68582610a33565b828281518110610ce957610ce8612d05565b5b6020026020010181815250508080600101915050610cc4565b508092505050919050565b6000600a60009054906101000a900473ffffffffffffffffffffffffffffffffffffffff16905090565b600c5481565b606060018054610d4c90612ba5565b80601f0160208091040260200160405190810160405280929190818152602001828054610d7890612ba5565b8015610dc55780601f10610d9a57610100808354040283529160200191610dc5565b820191906000526020600020905b815481529060010190602001808311610da857829003601f168201915b5050505050905090565b60008273ffffffffffffffffffffffffffffffffffffffff16610df183610b72565b73ffffffffffffffffffffffffffffffffffffffff1614905092915050565b600b5481565b600e5481565b610e2e610e2761132a565b83836115ae565b5050565b610e3d84848461092b565b610e51610e4861132a565b8585858561171d565b50505050565b600d5481565b6060610e6882611265565b506000610e736118ce565b90506000815111610e935760405180602001604052806000815250610ebe565b80610e9d846118e5565b604051602001610eae929190612d70565b6040516020818303038152906040525b915050919050565b6000600560008473ffffffffffffffffffffffffffffffffffffffff1673ffffffffffffffffffffffffffffffffffffffff16815260200190815260200160002060008373ffffffffffffffffffffffffffffffffffffffff1673ffffffffffffffffffffffffffffffffffffffff16815260200190815260200160002060009054906101000a900460ff16905092915050565b6000600e54905090565b600b54600c5410610faa576040517f08c379a0000000000000000000000000000000000000000000000000000000008152600401610fa190612de0565b60405180910390fd5b6000600e54905080341015610ff4576040517f08c379a0000000000000000000000000000000000000000000000000000000008152600401610feb90612e4c565b60405180910390fd5b61100033600c546119b3565b600c600081548092919061101390612e6c565b919050555080341115611073573373ffffffffffffffffffffffffffffffffffffffff166108fc82346110469190612c71565b9081150290604051600060405180830381858888f19350505050158015611071573d6000803e3d6000fd5b505b61107b610d0d565b73ffffffffffffffffffffffffffffffffffffffff166108fc829081150290604051600060405180830381858888f193505050501580156110c0573d6000803e3d6000fd5b50600f60009054906101000a900460ff16156110fa57601054600c546110e69190612eb4565b600d546110f39190612ef6565b600e819055505b50565b611105611461565b600073ffffffffffffffffffffffffffffffffffffffff168173ffffffffffffffffffffffffffffffffffffffff16036111775760006040517f1e4fbdf700000000000000000000000000000000000000000000000000000000815260040161116e9190612701565b60405180910390fd5b611180816114e8565b50565b60007f80ac58cd000000000000000000000000000000000000000000000000000000007bffffffffffffffffffffffffffffffffffffffffffffffffffffffff1916827bffffffffffffffffffffffffffffffffffffffffffffffffffffffff1916148061124e57507f5b5e139f000000000000000000000000000000000000000000000000000000007bffffffffffffffffffffffffffffffffffffffffffffffffffffffff1916827bffffffffffffffffffffffffffffffffffffffffffffffffffffffff1916145b8061125e575061125d826119d1565b5b9050919050565b60008061127183611a3b565b9050600073ffffffffffffffffffffffffffffffffffffffff168173ffffffffffffffffffffffffffffffffffffffff16036112e457826040517f7e2732890000000000000000000000000000000000000000000000000000000081526004016112db9190612797565b60405180910390fd5b80915050919050565b60006004600083815260200190815260200160002060009054906101000a900473ffffffffffffffffffffffffffffffffffffffff169050919050565b600033905090565b61133f8383836001611a78565b505050565b600080611352858585611c3d565b9050600073ffffffffffffffffffffffffffffffffffffffff168173ffffffffffffffffffffffffffffffffffffffff16036113965761139184611e57565b6113d5565b8473ffffffffffffffffffffffffffffffffffffffff168173ffffffffffffffffffffffffffffffffffffffff16146113d4576113d38185611ea0565b5b5b600073ffffffffffffffffffffffffffffffffffffffff168573ffffffffffffffffffffffffffffffffffffffff16036114175761141284611f8b565b611456565b8473ffffffffffffffffffffffffffffffffffffffff168173ffffffffffffffffffffffffffffffffffffffff161461145557611454858561205c565b5b5b809150509392505050565b61146961132a565b73ffffffffffffffffffffffffffffffffffffffff16611487610d0d565b73ffffffffffffffffffffffffffffffffffffffff16146114e6576114aa61132a565b6040517f118cdaa70000000000000000000000000000000000000000000000000000000081526004016114dd9190612701565b60405180910390fd5b565b6000600a60009054906101000a900473ffffffffffffffffffffffffffffffffffffffff16905081600a60006101000a81548173ffffffffffffffffffffffffffffffffffffffff021916908373ffffffffffffffffffffffffffffffffffffffff1602179055508173ffffffffffffffffffffffffffffffffffffffff168173ffffffffffffffffffffffffffffffffffffffff167f8be0079c531659141344cd1fd0a4f28419497f9722a3daafe3b4186f6b6457e060405160405180910390a35050565b600073ffffffffffffffffffffffffffffffffffffffff168273ffffffffffffffffffffffffffffffffffffffff160361161f57816040517f5b08ba180000000000000000000000000000000000000000000000000000000081526004016116169190612701565b60405180910390fd5b80600560008573ffffffffffffffffffffffffffffffffffffffff1673ffffffffffffffffffffffffffffffffffffffff16815260200190815260200160002060008473ffffffffffffffffffffffffffffffffffffffff1673ffffffffffffffffffffffffffffffffffffffff16815260200190815260200160002060006101000a81548160ff0219169083151502179055508173ffffffffffffffffffffffffffffffffffffffff168373ffffffffffffffffffffffffffffffffffffffff167f17307eab39ab6107e8899845ad3d59bd9653f200f220920489ca2b5937696c31836040516117109190612590565b60405180910390a3505050565b60008373ffffffffffffffffffffffffffffffffffffffff163b11156118c7578273ffffffffffffffffffffffffffffffffffffffff1663150b7a02868685856040518563ffffffff1660e01b815260040161177c9493929190612f7f565b6020604051808303816000875af19250505080156117b857506040513d601f19601f820116820180604052508101906117b59190612fe0565b60015b61183c573d80600081146117e8576040519150601f19603f3d011682016040523d82523d6000602084013e6117ed565b606091505b50600081510361183457836040517f64a0ae9200000000000000000000000000000000000000000000000000000000815260040161182b9190612701565b60405180910390fd5b805160208201fd5b63150b7a0260e01b7bffffffffffffffffffffffffffffffffffffffffffffffffffffffff1916817bffffffffffffffffffffffffffffffffffffffffffffffffffffffff1916146118c557836040517f64a0ae920000000000000000000000000000000000000000000000000000000081526004016118bc9190612701565b60405180910390fd5b505b5050505050565b606060405180602001604052806000815250905090565b6060600060016118f4846120e7565b01905060008167ffffffffffffffff81111561191357611912612988565b5b6040519080825280601f01601f1916602001820160405280156119455781602001600182028036833780820191505090505b509050600082602083010190505b6001156119a8578080600190039150507f3031323334353637383961626364656600000000000000000000000000000000600a86061a8153600a858161199c5761199b61300d565b5b04945060008503611953575b819350505050919050565b6119cd82826040518060200160405280600081525061223a565b5050565b60007f01ffc9a7000000000000000000000000000000000000000000000000000000007bffffffffffffffffffffffffffffffffffffffffffffffffffffffff1916827bffffffffffffffffffffffffffffffffffffffffffffffffffffffff1916149050919050565b60006002600083815260200190815260200160002060009054906101000a900473ffffffffffffffffffffffffffffffffffffffff169050919050565b8080611ab15750600073ffffffffffffffffffffffffffffffffffffffff168273ffffffffffffffffffffffffffffffffffffffff1614155b15611be5576000611ac184611265565b9050600073ffffffffffffffffffffffffffffffffffffffff168373ffffffffffffffffffffffffffffffffffffffff1614158015611b2c57508273ffffffffffffffffffffffffffffffffffffffff168173ffffffffffffffffffffffffffffffffffffffff1614155b8015611b3f5750611b3d8184610ec6565b155b15611b8157826040517fa9fbf51f000000000000000000000000000000000000000000000000000000008152600401611b789190612701565b60405180910390fd5b8115611be357838573ffffffffffffffffffffffffffffffffffffffff168273ffffffffffffffffffffffffffffffffffffffff167f8c5be1e5ebec7d5bd14f71427d1e84f3dd0314c0f7b2291e5b200ac8c7c3b92560405160405180910390a45b505b836004600085815260200190815260200160002060006101000a81548173ffffffffffffffffffffffffffffffffffffffff021916908373ffffffffffffffffffffffffffffffffffffffff16021790555050505050565b600080611c4984611a3b565b9050600073ffffffffffffffffffffffffffffffffffffffff168373ffffffffffffffffffffffffffffffffffffffff1614611c8b57611c8a81848661225e565b5b600073ffffffffffffffffffffffffffffffffffffffff168173ffffffffffffffffffffffffffffffffffffffff1614611d1c57611ccd600085600080611a78565b6001600360008373ffffffffffffffffffffffffffffffffffffffff1673ffffffffffffffffffffffffffffffffffffffff168152602001908152602001600020600082825403925050819055505b600073ffffffffffffffffffffffffffffffffffffffff168573ffffffffffffffffffffffffffffffffffffffff1614611d9f576001600360008773ffffffffffffffffffffffffffffffffffffffff1673ffffffffffffffffffffffffffffffffffffffff168152602001908152602001600020600082825401925050819055505b846002600086815260200190815260200160002060006101000a81548173ffffffffffffffffffffffffffffffffffffffff021916908373ffffffffffffffffffffffffffffffffffffffff160217905550838573ffffffffffffffffffffffffffffffffffffffff168273ffffffffffffffffffffffffffffffffffffffff167fddf252ad1be2c89b69c2b068fc378daa952ba7f163c4a11628f55a4df523b3ef60405160405180910390a4809150509392505050565b6008805490506009600083815260200190815260200160002081905550600881908060018154018082558091505060019003906000526020600020016000909190919091505550565b6000611eab83610b84565b90506000600760008481526020019081526020016000205490506000600660008673ffffffffffffffffffffffffffffffffffffffff1673ffffffffffffffffffffffffffffffffffffffff1681526020019081526020016000209050828214611f575760008160008581526020019081526020016000205490508082600085815260200190815260200160002081905550826007600083815260200190815260200160002081905550505b6007600085815260200190815260200160002060009055806000848152602001908152602001600020600090555050505050565b60006001600880549050611f9f9190612c71565b9050600060096000848152602001908152602001600020549050600060088381548110611fcf57611fce612d05565b5b906000526020600020015490508060088381548110611ff157611ff0612d05565b5b9060005260206000200181905550816009600083815260200190815260200160002081905550600960008581526020019081526020016000206000905560088054806120405761203f61303c565b5b6001900381819060005260206000200160009055905550505050565b6000600161206984610b84565b6120739190612c71565b905081600660008573ffffffffffffffffffffffffffffffffffffffff1673ffffffffffffffffffffffffffffffffffffffff168152602001908152602001600020600083815260200190815260200160002081905550806007600084815260200190815260200160002081905550505050565b600080600090507a184f03e93ff9f4daa797ed6e38ed64bf6a1f0100000000000000008310612145577a184f03e93ff9f4daa797ed6e38ed64bf6a1f010000000000000000838161213b5761213a61300d565b5b0492506040810190505b6d04ee2d6d415b85acef81000000008310612182576d04ee2d6d415b85acef810000000083816121785761217761300d565b5b0492506020810190505b662386f26fc1000083106121b157662386f26fc1000083816121a7576121a661300d565b5b0492506010810190505b6305f5e10083106121da576305f5e10083816121d0576121cf61300d565b5b0492506008810190505b61271083106121ff5761271083816121f5576121f461300d565b5b0492506004810190505b6064831061222257606483816122185761221761300d565b5b0492506002810190505b600a8310612231576001810190505b80915050919050565b6122448383612322565b61225961224f61132a565b600085858561171d565b505050565b61226983838361241b565b61231d57600073ffffffffffffffffffffffffffffffffffffffff168373ffffffffffffffffffffffffffffffffffffffff16036122de57806040517f7e2732890000000000000000000000000000000000000000000000000000000081526004016122d59190612797565b60405180910390fd5b81816040517f177e802f000000000000000000000000000000000000000000000000000000008152600401612314929190612cdc565b60405180910390fd5b505050565b600073ffffffffffffffffffffffffffffffffffffffff168273ffffffffffffffffffffffffffffffffffffffff16036123945760006040517f64a0ae9200000000000000000000000000000000000000000000000000000000815260040161238b9190612701565b60405180910390fd5b60006123a283836000611344565b9050600073ffffffffffffffffffffffffffffffffffffffff168173ffffffffffffffffffffffffffffffffffffffff16146124165760006040517f73c6ac6e00000000000000000000000000000000000000000000000000000000815260040161240d9190612701565b60405180910390fd5b505050565b60008073ffffffffffffffffffffffffffffffffffffffff168373ffffffffffffffffffffffffffffffffffffffff16141580156124d357508273ffffffffffffffffffffffffffffffffffffffff168473ffffffffffffffffffffffffffffffffffffffff16148061249457506124938484610ec6565b5b806124d257508273ffffffffffffffffffffffffffffffffffffffff166124ba836112ed565b73ffffffffffffffffffffffffffffffffffffffff16145b5b90509392505050565b6000604051905090565b600080fd5b600080fd5b60007fffffffff0000000000000000000000000000000000000000000000000000000082169050919050565b612525816124f0565b811461253057600080fd5b50565b6000813590506125428161251c565b92915050565b60006020828403121561255e5761255d6124e6565b5b600061256c84828501612533565b91505092915050565b60008115159050919050565b61258a81612575565b82525050565b60006020820190506125a56000830184612581565b92915050565b600081519050919050565b600082825260208201905092915050565b60005b838110156125e55780820151818401526020810190506125ca565b60008484015250505050565b6000601f19601f8301169050919050565b600061260d826125ab565b61261781856125b6565b93506126278185602086016125c7565b612630816125f1565b840191505092915050565b600060208201905081810360008301526126558184612602565b905092915050565b6000819050919050565b6126708161265d565b811461267b57600080fd5b50565b60008135905061268d81612667565b92915050565b6000602082840312156126a9576126a86124e6565b5b60006126b78482850161267e565b91505092915050565b600073ffffffffffffffffffffffffffffffffffffffff82169050919050565b60006126eb826126c0565b9050919050565b6126fb816126e0565b82525050565b600060208201905061271660008301846126f2565b92915050565b612725816126e0565b811461273057600080fd5b50565b6000813590506127428161271c565b92915050565b6000806040838503121561275f5761275e6124e6565b5b600061276d85828601612733565b925050602061277e8582860161267e565b9150509250929050565b6127918161265d565b82525050565b60006020820190506127ac6000830184612788565b92915050565b6000806000606084860312156127cb576127ca6124e6565b5b60006127d986828701612733565b93505060206127ea86828701612733565b92505060406127fb8682870161267e565b9150509250925092565b60006020828403121561281b5761281a6124e6565b5b600061282984828501612733565b91505092915050565b600081519050919050565b600082825260208201905092915050565b6000819050602082019050919050565b6128678161265d565b82525050565b6000612879838361285e565b60208301905092915050565b6000602082019050919050565b600061289d82612832565b6128a7818561283d565b93506128b28361284e565b8060005b838110156128e35781516128ca888261286d565b97506128d583612885565b9250506001810190506128b6565b5085935050505092915050565b6000602082019050818103600083015261290a8184612892565b905092915050565b61291b81612575565b811461292657600080fd5b50565b60008135905061293881612912565b92915050565b60008060408385031215612955576129546124e6565b5b600061296385828601612733565b925050602061297485828601612929565b9150509250929050565b600080fd5b600080fd5b7f4e487b7100000000000000000000000000000000000000000000000000000000600052604160045260246000fd5b6129c0826125f1565b810181811067ffffffffffffffff821117156129df576129de612988565b5b80604052505050565b60006129f26124dc565b90506129fe82826129b7565b919050565b600067ffffffffffffffff821115612a1e57612a1d612988565b5b612a27826125f1565b9050602081019050919050565b82818337600083830152505050565b6000612a56612a5184612a03565b6129e8565b905082815260208101848484011115612a7257612a71612983565b5b612a7d848285612a34565b509392505050565b600082601f830112612a9a57612a9961297e565b5b8135612aaa848260208601612a43565b91505092915050565b60008060008060808587031215612acd57612acc6124e6565b5b6000612adb87828801612733565b9450506020612aec87828801612733565b9350506040612afd8782880161267e565b925050606085013567ffffffffffffffff811115612b1e57612b1d6124eb565b5b612b2a87828801612a85565b91505092959194509250565b60008060408385031215612b4d57612b4c6124e6565b5b6000612b5b85828601612733565b9250506020612b6c85828601612733565b9150509250929050565b7f4e487b7100000000000000000000000000000000000000000000000000000000600052602260045260246000fd5b60006002820490506001821680612bbd57607f821691505b602082108103612bd057612bcf612b76565b5b50919050565b7f50726963652063616e6e6f7420676f2062656c6f772030000000000000000000600082015250565b6000612c0c6017836125b6565b9150612c1782612bd6565b602082019050919050565b60006020820190508181036000830152612c3b81612bff565b9050919050565b7f4e487b7100000000000000000000000000000000000000000000000000000000600052601160045260246000fd5b6000612c7c8261265d565b9150612c878361265d565b9250828203905081811115612c9f57612c9e612c42565b5b92915050565b6000606082019050612cba60008301866126f2565b612cc76020830185612788565b612cd460408301846126f2565b949350505050565b6000604082019050612cf160008301856126f2565b612cfe6020830184612788565b9392505050565b7f4e487b7100000000000000000000000000000000000000000000000000000000600052603260045260246000fd5b600081905092915050565b6000612d4a826125ab565b612d548185612d34565b9350612d648185602086016125c7565b80840191505092915050565b6000612d7c8285612d3f565b9150612d888284612d3f565b91508190509392505050565b7f536f6c64206f7574000000000000000000000000000000000000000000000000600082015250565b6000612dca6008836125b6565b9150612dd582612d94565b602082019050919050565b60006020820190508181036000830152612df981612dbd565b9050919050565b7f496e73756666696369656e742045544800000000000000000000000000000000600082015250565b6000612e366010836125b6565b9150612e4182612e00565b602082019050919050565b60006020820190508181036000830152612e6581612e29565b9050919050565b6000612e778261265d565b91507fffffffffffffffffffffffffffffffffffffffffffffffffffffffffffffffff8203612ea957612ea8612c42565b5b600182019050919050565b6000612ebf8261265d565b9150612eca8361265d565b9250828202612ed88161265d565b91508282048414831517612eef57612eee612c42565b5b5092915050565b6000612f018261265d565b9150612f0c8361265d565b9250828201905080821115612f2457612f23612c42565b5b92915050565b600081519050919050565b600082825260208201905092915050565b6000612f5182612f2a565b612f5b8185612f35565b9350612f6b8185602086016125c7565b612f74816125f1565b840191505092915050565b6000608082019050612f9460008301876126f2565b612fa160208301866126f2565b612fae6040830185612788565b8181036060830152612fc08184612f46565b905095945050505050565b600081519050612fda8161251c565b92915050565b600060208284031215612ff657612ff56124e6565b5b600061300484828501612fcb565b91505092915050565b7f4e487b7100000000000000000000000000000000000000000000000000000000600052601260045260246000fd5b7f4e487b7100000000000000000000000000000000000000000000000000000000600052603160045260246000fdfea264697066735822122071ca2af97a6e121a683fc13f59c4892eaf93fe3d9e6676927bd80bb357ca36b264736f6c634300081c0033a264697066735822122017bb933ecaf8b1dc720f37c0615f899344516d38862d9ea6d393afcee3e8916f64736f6c634300081c0033",
  "linkReferences": {},
  "deployedLinkReferences": {}
}