{
  "_format": "hh-sol-artifact-1",
  "contractName": "ReselIT",
  "sourceName": "contracts/ReselT.sol",
  "abi": [
    {
      "anonymous": false,
      "inputs": [
        {
          "indexed": false,
          "internalType": "address",
          "name": "eventAddress",
          "type": "address"
        },
        {
          "indexed": false,
          "internalType": "uint256",
          "name": "tokenId",
          "type": "uint256"
        },
        {
          "indexed": false,
          "internalType": "uint256",
          "name": "price",
          "type": "uint256"
        },
        {
          "indexed": false,
          "internalType": "address",
          "name": "buyer",
          "type": "address"
        }
      ],
      "name": "TicketBought",
      "type": "event"
    },
    {
      "anonymous": false,
      "inputs": [
        {
          "indexed": false,
          "internalType": "address",
          "name": "eventAddress",
          "type": "address"
        },
        {
          "indexed": false,
          "internalType": "uint256",
          "name": "tokenId",
          "type": "uint256"
        },
        {
          "indexed": false,
          "internalType": "uint256",
          "name": "price",
          "type": "uint256"
        },
        {
          "indexed": false,
          "internalType": "address",
          "name": "seller",
          "type": "address"
        }
      ],
      "name": "TicketListed",
      "type": "event"
    },
    {
      "inputs": [
        {
          "internalType": "address",
          "name": "eventAddress",
          "type": "address"
        }
      ],
      "name": "buyTicketFromEvent",
      "outputs": [],
      "stateMutability": "payable",
      "type": "function"
    },
    {
      "inputs": [
        {
          "internalType": "address",
          "name": "eventAddress",
          "type": "address"
        },
        {
          "internalType": "uint256",
          "name": "tokenId",
          "type": "uint256"
        }
      ],
      "name": "buyTicketResale",
      "outputs": [],
      "stateMutability": "payable",
      "type": "function"
    },
    {
      "inputs": [
        {
          "internalType": "address",
          "name": "eventAddress",
          "type": "address"
        },
        {
          "internalType": "uint256",
          "name": "tokenId",
          "type": "uint256"
        },
        {
          "internalType": "uint256",
          "name": "price",
          "type": "uint256"
        }
      ],
      "name": "listTicket",
      "outputs": [],
      "stateMutability": "nonpayable",
      "type": "function"
    },
    {
      "inputs": [
        {
          "internalType": "address",
          "name": "",
          "type": "address"
        },
        {
          "internalType": "uint256",
          "name": "",
          "type": "uint256"
        }
      ],
      "name": "listings",
      "outputs": [
        {
          "internalType": "address",
          "name": "seller",
          "type": "address"
        },
        {
          "internalType": "uint256",
          "name": "price",
          "type": "uint256"
        }
      ],
      "stateMutability": "view",
      "type": "function"
    }
  ],
  "bytecode": "0x6080604052348015600f57600080fd5b50610d458061001f6000396000f3fe60806040526004361061003e5760003560e01c806207df30146100435780630665efeb146100815780631d66b15c1461009d578063219ae7c0146100c6575b600080fd5b34801561004f57600080fd5b5061006a6004803603810190610065919061089f565b6100e2565b6040516100789291906108fd565b60405180910390f35b61009b6004803603810190610096919061089f565b610133565b005b3480156100a957600080fd5b506100c460048036038101906100bf9190610926565b61055c565b005b6100e060048036038101906100db9190610979565b61079c565b005b6000602052816000526040600020602052806000526040600020600091509150508060000160009054906101000a900473ffffffffffffffffffffffffffffffffffffffff16908060010154905082565b60008060008473ffffffffffffffffffffffffffffffffffffffff1673ffffffffffffffffffffffffffffffffffffffff16815260200190815260200160002060008381526020019081526020016000206040518060400160405290816000820160009054906101000a900473ffffffffffffffffffffffffffffffffffffffff1673ffffffffffffffffffffffffffffffffffffffff1673ffffffffffffffffffffffffffffffffffffffff16815260200160018201548152505090506000816020015111610238576040517f08c379a000000000000000000000000000000000000000000000000000000000815260040161022f90610a03565b60405180910390fd5b806020015134101561027f576040517f08c379a000000000000000000000000000000000000000000000000000000000815260040161027690610a6f565b60405180910390fd5b6000839050816000015173ffffffffffffffffffffffffffffffffffffffff168173ffffffffffffffffffffffffffffffffffffffff16636352211e856040518263ffffffff1660e01b81526004016102d89190610a8f565b602060405180830381865afa1580156102f5573d6000803e3d6000fd5b505050506040513d601f19601f820116820180604052508101906103199190610abf565b73ffffffffffffffffffffffffffffffffffffffff161461036f576040517f08c379a000000000000000000000000000000000000000000000000000000000815260040161036690610b38565b60405180910390fd5b8073ffffffffffffffffffffffffffffffffffffffff166342842e0e836000015133866040518463ffffffff1660e01b81526004016103b093929190610b58565b600060405180830381600087803b1580156103ca57600080fd5b505af11580156103de573d6000803e3d6000fd5b50505050816000015173ffffffffffffffffffffffffffffffffffffffff166108fc83602001519081150290604051600060405180830381858888f19350505050158015610430573d6000803e3d6000fd5b506000808573ffffffffffffffffffffffffffffffffffffffff1673ffffffffffffffffffffffffffffffffffffffff1681526020019081526020016000206000848152602001908152602001600020600080820160006101000a81549073ffffffffffffffffffffffffffffffffffffffff0219169055600182016000905550508160200151341115610515573373ffffffffffffffffffffffffffffffffffffffff166108fc8360200151346104e89190610bbe565b9081150290604051600060405180830381858888f19350505050158015610513573d6000803e3d6000fd5b505b7fb64b5d296974d1fc1b4ad9b6b03c4ec640787a4befba5dd07e8ca499555977ef848484602001513360405161054e9493929190610bf2565b60405180910390a150505050565b60008390503373ffffffffffffffffffffffffffffffffffffffff168173ffffffffffffffffffffffffffffffffffffffff16636352211e856040518263ffffffff1660e01b81526004016105b19190610a8f565b602060405180830381865afa1580156105ce573d6000803e3d6000fd5b505050506040513d601f19601f820116820180604052508101906105f29190610abf565b73ffffffffffffffffffffffffffffffffffffffff1614610648576040517f08c379a000000000000000000000000000000000000000000000000000000000815260040161063f90610c83565b60405180910390fd5b6000821161068b576040517f08c379a000000000000000000000000000000000000000000000000000000000815260040161068290610cef565b60405180910390fd5b60405180604001604052803373ffffffffffffffffffffffffffffffffffffffff168152602001838152506000808673ffffffffffffffffffffffffffffffffffffffff1673ffffffffffffffffffffffffffffffffffffffff168152602001908152602001600020600085815260200190815260200160002060008201518160000160006101000a81548173ffffffffffffffffffffffffffffffffffffffff021916908373ffffffffffffffffffffffffffffffffffffffff160217905550602082015181600101559050507f8eb7f103cc796712c31d344f1e05d5b095b445d2b7ac20e98c7cf75d9fc5a2078484843360405161078e9493929190610bf2565b60405180910390a150505050565b60008190508073ffffffffffffffffffffffffffffffffffffffff1663edca914c346040518263ffffffff1660e01b81526004016000604051808303818588803b1580156107e957600080fd5b505af11580156107fd573d6000803e3d6000fd5b50505050505050565b600080fd5b600073ffffffffffffffffffffffffffffffffffffffff82169050919050565b60006108368261080b565b9050919050565b6108468161082b565b811461085157600080fd5b50565b6000813590506108638161083d565b92915050565b6000819050919050565b61087c81610869565b811461088757600080fd5b50565b60008135905061089981610873565b92915050565b600080604083850312156108b6576108b5610806565b5b60006108c485828601610854565b92505060206108d58582860161088a565b9150509250929050565b6108e88161082b565b82525050565b6108f781610869565b82525050565b600060408201905061091260008301856108df565b61091f60208301846108ee565b9392505050565b60008060006060848603121561093f5761093e610806565b5b600061094d86828701610854565b935050602061095e8682870161088a565b925050604061096f8682870161088a565b9150509250925092565b60006020828403121561098f5761098e610806565b5b600061099d84828501610854565b91505092915050565b600082825260208201905092915050565b7f4e6f7420666f722073616c650000000000000000000000000000000000000000600082015250565b60006109ed600c836109a6565b91506109f8826109b7565b602082019050919050565b60006020820190508181036000830152610a1c816109e0565b9050919050565b7f496e73756666696369656e742045544800000000000000000000000000000000600082015250565b6000610a596010836109a6565b9150610a6482610a23565b602082019050919050565b60006020820190508181036000830152610a8881610a4c565b9050919050565b6000602082019050610aa460008301846108ee565b92915050565b600081519050610ab98161083d565b92915050565b600060208284031215610ad557610ad4610806565b5b6000610ae384828501610aaa565b91505092915050565b7f53656c6c6572206e6f74206f776e657220616e796d6f72650000000000000000600082015250565b6000610b226018836109a6565b9150610b2d82610aec565b602082019050919050565b60006020820190508181036000830152610b5181610b15565b9050919050565b6000606082019050610b6d60008301866108df565b610b7a60208301856108df565b610b8760408301846108ee565b949350505050565b7f4e487b7100000000000000000000000000000000000000000000000000000000600052601160045260246000fd5b6000610bc982610869565b9150610bd483610869565b9250828203905081811115610bec57610beb610b8f565b5b92915050565b6000608082019050610c0760008301876108df565b610c1460208301866108ee565b610c2160408301856108ee565b610c2e60608301846108df565b95945050505050565b7f4e6f74207469636b6574206f776e657200000000000000000000000000000000600082015250565b6000610c6d6010836109a6565b9150610c7882610c37565b602082019050919050565b60006020820190508181036000830152610c9c81610c60565b9050919050565b7f5072696365206d757374206265203e2030000000000000000000000000000000600082015250565b6000610cd96011836109a6565b9150610ce482610ca3565b602082019050919050565b60006020820190508181036000830152610d0881610ccc565b905091905056fea2646970667358221220caef67bb4ac71ff4692193baf7b3f15f6279a792f3a9709b8576b5a739b77acd64736f6c634300081c0033",
  "linkReferences": {},
  "deployedLinkReferences": {}
}